:1000000002EF00F07F9C7F8E4AECFFF072ECFFF075
:1000100027ECFFF0000E956E000E996E10EF00F0C9
:1000200004EE00F0010EF86EFE0EF76E3C0EF66E5A
:100030000000110E006E0900F5CFEEFF002EFBD779
:10004000FF0E016FFF0E016FFF0E016F46EC00F017
:1000500039ECFFF0026F021CF00B036F0342034206
:1000600003420340036F035203C083FF0000021CDE
:100070000F0B046E04C087FF0000FF0E026349EC03
:1000800000F0000E026FDCD744EF00F0012EFED727
:100090001200D1ECFFF024EE00F00000000EDE268E
:1000A000010E03650CD00332000EDE26000EDE26A4
:1000B000000EDE26000EDE26010E0363F4D7010ECD
:1000C000046506D00432000EDE26010E0463FAD762
:0A00D000010E9DECFFF0000012008D
:020000040001F9
:10FE3A00200A203132334634353645373839444181
:10FE4A00304243000F01538D00018D6A12000F0EDC
:10FE5A00966E84500C6F1200F00E966E84500D6FE1
:10FE6A0012000E2EFED712002CECFFF0FF0E36EC1D
:10FE7A00FFF0FF0E36ECFFF031ECFFF0FF0E36EC30
:10FE8A00FFF0FF0E0C510D251200AB8EAC98AC940E
:10FE9A00AC8A6596670EAF6E948C12000F6EDE50B8
:10FEAA005AECFFF00F2EFBD712009EA8FED7AD6EBC
:10FEBA001200020E106E03EE00F0010EF86EFE0E36
:10FECA00F76E3A0EF66E0900F5CFEEFF102EFBD74D
:10FEDA00020E23EE00F053ECFFF08A6AC00E936E16
:10FEEA00280EEAECFFF0300EA4ECFFF00A0EF1EC5B
:10FEFA00FFF0280EA4ECFFF00A0EF1ECFFF0280E3A
:10FF0A00A4ECFFF00A0EF1ECFFF00F0EA4ECFFF0E8
:10FF1A000A0EF1ECFFF0010EA4ECFFF0020EEAEC7F
:10FF2A00FFF0060EA4ECFFF00A0EF1ECFFF012004F
:10FF3A000B6EDE50B2ECFFF00B2EFBD712000A6EEE
:10FF4A000A380F0B8A6E8A98D8ECFFF00A500F0B0A
:10FF5A008A6E8A98D8ECFFF012000A6E0A380F0BE4
:10FF6A008A6E8A88D8ECFFF00A500F0B8A6E8A884C
:10FF7A00D8ECFFF00A0EF1ECFFF01200A80EA4EC88
:10FF8A00FFF00A0EF1ECFFF01200800EA4ECFFF075
:10FF9A000A0EF1ECFFF01200010EA4ECFFF0020EC3
:10FFAA00EAECFFF012000000000000000000000070
:10FFBA000000000000008A8A000000000000000023
:10FFCA000000000000008A9A1200096EFA0EF1EC95
:10FFDA00FFF0092EFBD71200076E073A0F0E07141F
:10FFEA00086EF00E0716FBECFFF01200000E070673
:06FFFA00085AFDE21200AE
:020000040030CA
:0700000015137F00B98B917D
:06000800FFC0FFE0FF4015
:00000001FF
